:1000000071C000008FC000008DC000008BC00000D8
:1000100089C0000087C0000085C0000083C00000C8
:1000200081C000007FC000007DC000007BC00000D8
:1000300079C0000077C0000075C0000073C00000E8
:1000400071C000006FC000006DC000006BC00000F8
:1000500069C0000067C0000065C0000063C0000008
:1000600061C000005FC000005DC000005BC0000018
:1000700059C0000057C0000055C0000053C0000028
:1000800051C000004FC000004DC000004BC0000038
:1000900049C0000047C0000045C0000043C0000048
:1000A00041C000003FC000003DC000003BC0000058
:1000B00039C0000037C0000035C0000033C0000068
:1000C00031C000002FC000002DC000002BC0000078
:1000D00029C0000027C0000025C0000023C0000088
:1000E00021C0000011241FBECFEFD1E2DEBFCDBF83
:1000F00000E00CBF12E0A0E0B2E0EEE3FBE100E0C4
:100100000BBF02C007900D92A230B107D9F723E0D0
:10011000A2E0B2E001C01D92AE31B207E1F707D410
:100120000C949D0D6DCFE0ECF0E080818823ECF71E
:100130008091C6000895E0ECF0E0908195FFFDCF3E
:100140008093C60008950F931F93CF93DF931816E3
:10015000190654F4C2E1D2E08C010E5E1D4FE3DFBC
:100160008993C017D107D9F7DF91CF911F910F91D4
:1001700008959093C5008093C40088E18093C100E6
:100180008EE08093C2000895CF93DF93C2E1D2E066
:10019000CADF89938111FCCFDF91CF9108952E9A08
:1001A000A59AA19AA09A089512B811B811BA1092FE
:1001B00008018FEF80BB8093070108959093080199
:1001C00081BB0895FBDFA598A1980000000080B1D5
:1001D000A19AA59A0895CF93DF93D62FC42FEEDF6F
:1001E0008FEF81B9D2B9A098C13009F4A598000069
:1001F000C13009F4A59AA09A12B811B8DF91CF9135
:10020000089511BA1092080112B88FEF80BB809345
:10021000070181B908950F931F9312B8E8E0F1E048
:10022000108211BA2FEF21B92093070120BB8C0156
:100230002227332702B9072F182F292F33270083AE
:1002400061BB1F910F910895E6DFA59810920801F8
:1002500011BA1092070110BAA1980000209106016E
:100260008FB1A19AA59A90E0922B0895A7DFA1984B
:100270002E980000000080B12E9AA19A0895CF9385
:10028000C62F9CDF8FEF81B9C2B9A0982E980000CD
:1002900000002E9AA09A12B811B8CF9108958FEF4E
:1002A00080BB8093070181B990E891BB80930801DE
:1002B00082B90895A598623051F4411104C0BC017F
:1002C000706C9FE02EC0BC0170689FE02AC0411195
:1002D00004C0BC01606C97E024C0BC01606897E07A
:1002E00020C09F01092E02C0220F331F0A94E2F79B
:1002F00026233723232B11F0889A01C08898A098D1
:1003000000000000A09A00000000915052F7411137
:100310000BC088980000A09800000000A09AA59A41
:100320000895E1E0F0E0DDCF089540E0C3DF889874
:100330008098A59884E0A19800000000A19A000090
:1003400000008150C1F7E3E1F3E0ABE1B3E061E02D
:1003500070E014C0A19800000000A19A789B08C02A
:10036000AB01082E02C0440F551F0A94E2F7242B5C
:10037000019780F72193EA17FB0721F087E090E0CF
:1003800020E0E8CFA59A889A809A089541E092DF0C
:10039000E3E1F3E04BE153E01AC0808190E0022EEC
:1003A00002C0959587950A94E2F780FF02C0889A6B
:1003B00001C08898A09800000000A09A00000000EA
:1003C0002150310950F73196E417F50719F027E06D
:1003D00030E0E3CF8898A09800000000A09A0000C9
:1003E0000000A59A0895CF93C62F2FEF21B9E6DE1E
:1003F000C2B9A0982E980000A09A2E9ACF91089585
:10040000CF93DF936AEA85E595E5EDDF65E58AEA56
:100410009AE2E9DF60E985E595E5E5DF2FEF89EF11
:1004200090E0215080409040E1F700C0000012B8F9
:1004300011B880E090E01ADFC0E1D2E0888381E06B
:1004400090E014DF89836AEA85E595E5CCDF65E510
:100450008AEA9AE2C8DF60EF85E595E5C4DF2FEF11
:1004600089EF90E0215080409040E1F700C000000B
:10047000DF91CF910895CF93C82F6AEA85E595E57E
:10048000B2DF65E58AEA9AE2AEDF60EB85E595E5E5
:10049000AADF6C2F80E090E0A6DFCF910895CF9384
:1004A000C82F6AEA85E595E59EDF65E58AEA9AE266
:1004B0009ADF60E885E595E596DF6AEA85E595E5EA
:1004C00092DF65E58AEA9AE28EDF60E380E09C2FA6
:1004D0009295907F88DF2FE788E391E0215080405C
:1004E0009040E1F700C00000CF9108951F93CF9393
:1004F000DF93EC01162F6AEA85E595E574DF65E583
:100500008AEA9AE270DF60EA85E595E56CDF612FA3
:10051000CE0169DF8AE68A95F1F700C0DF91CF91BD
:100520001F910895CF92DF92EF92FF920F931F9346
:10053000CF93DF937C016AEA85E595E554DF65E5B5
:100540008AEA9AE250DF60EA85E595E54CDFF694A9
:10055000FE2CEE24F794E7940F2EF2E9CF2EF2E072
:10056000DF2EF02DC2E1D2E08E0100951095699149
:10057000C8018C0F9D1F8E299F2935DFCC15DD0505
:10058000B1F72FEF89EF90E0215080409040E1F7E4
:1005900000C00000DF91CF911F910F91FF90EF906D
:1005A000DF90CF90089512B811B808DEA19800002E
:1005B000000080B1A19A0895A1980000000080B1C8
:1005C000A19A0895CF93C62F2FEF21B9F7DDC2B9B5
:1005D00080911B03813431F4A298000000000000D8
:1005E000A29A05C0A098000000000000A09A12B8CE
:1005F00011B8CF9108959093080181BB62B98091A1
:100600001B03813431F4A298000000000000A29A7C
:100610000895A098000000000000A09A0895EF92AD
:10062000FF920F931F93CF937C01C62F8FEF81B959
:1006300004E012E0F801628180819181DCDFF80141
:10064000668184819581D7DFF801628580859185F7
:10065000D2DF6C2FC701CFDFFAE1FA95F1F700C0C6
:1006600012B811B8A9DFC81739F0A6DF95E09A953E
:10067000F1F70000C813F9CFCF911F910F91FF90B0
:10068000EF900895FF920F931F93CF93DF938C0108
:10069000F62E80910302813061F440E06091020205
:1006A00080E091E298DD87EC90E00197F1F700C0DF
:1006B0000000C4E0D2E06A818881998183DF6E8185
:1006C0008C819D817FDF6A85888599857BDF6F2D91
:1006D000C80178DF87EE93E00197F1F700C00000D2
:1006E00012B811B82E9887EC90E00197F1F700C08E
:1006F00000002E9A87EC90E00197F1F700C000000F
:10070000DF91CF911F910F91FF900895EF92FF928B
:100710000F931F93CF93DF938C01C62FDFEFD1B9D7
:1007200080E091E24BDD81E082B9A0980000A09AC0
:100730000F2EF4E0EF2EF2E0FF2EF02DF701628194
:10074000808191813FDFF7016681848195813ADF65
:10075000F70162858085918535DFD1B980E091E22E
:100760002DDD8091020282B9A0980000A09A6C2F22
:10077000C80128DFF5E3FA95F1F7000012B811B8C7
:10078000C80111DFC81741F0C8010DDF9AE19A9541
:10079000F1F700C0C813F8CFDF91CF911F910F91EF
:1007A000FF90EF9008950F931F938C01222733271A
:1007B00002B9072F182F292F3327E8E0F1E0008333
:1007C00061BBA598508341BBA098000000000000C9
:1007D000A09AA59A1F910F9108958FEF81B98093E8
:1007E000070180BB12B8E8E0F1E095E0908385E571
:1007F00081BBA598108229EA21BBA09800000000C7
:100800000000A09AA59A12B822E020832AEA21BB10
:10081000A598108226E521BBA098000000000000EA
:10082000A09AA59A12B8908381BBA598108280EAFD
:1008300081BBA098000000000000A09AA59A08952E
:100840008FEF81B98093070180BB12B8E8E0F1E037
:1008500095E0908385E581BBA59810822AEA21BBAB
:10086000A098000000000000A09AA59A12B832E0FB
:10087000308321BBA598108281BBA09800000000A6
:100880000000A09AA59A12B8908381BBA598108207
:1008900080EA81BBA098000000000000A09AA59A01
:1008A0000895CF92DF92EF92FF92CF93DF936B0187
:1008B0007C01EA01211102C0C3DF01C08EDFAE015D
:1008C000C701B60170DF2AE02A95F1F700C0C70121
:1008D000B601BADCC817D90751F0C701B601B4DCBC
:1008E0002AE02A95F1F700C0C817D907B1F7DF91C0
:1008F000CF91FF90EF90DF90CF90089585B7877FDD
:1009000085BFE0E6F0E088E18083108248DC84B1B6
:10091000806C84B983B3836283BB12B811B811BAF7
:1009200010BA109208011092070178940895CF939D
:10093000DF93CDB7DEB727970FB6F894DEBF0FBEB3
:10094000CDBFDCDF80E090E014DC84E0F4DB21E06C
:10095000298331E03C83812C912C540182E192E087
:10096000809590959B838A830F2EFBE12F2EF3E0D9
:100970003F2EF02D02C091E09983E981E13009F426
:100980000EDCD1DB80931203833421F480910002CA
:10099000D2DBF3CF873411F407DCEFCF873611F4C5
:1009A00030DCEBCF833321F482E080930002E5CF8B
:1009B000853321F481E080930002DFCF813459F444
:1009C000E3DB40E150E060E070E082E192E010D7CC
:1009D0004B015C01D2CF823529F5E6DB81E38093C0
:1009E00012038401005C1F4F2F9A9E828D828D819D
:1009F0009E81E8DBA0DB2D813E812F5F3F4F3E8350
:100A00002D832017310799F730E4830E911CA11C28
:100A1000B11C2F9888DB80931203005C1F4F813339
:100A200019F3ABCF873559F5BFDB80E490E08BDB62
:100A30002F9A0F2EF2E5EF2EF2E0FF2EF02D82E13D
:100A400092E00A811B81080D191D9E838D83ED8123
:100A5000FE816191FE83ED8341E0CF01800F911F04
:100A6000BADB2D813E812E153F0589F730E4830ED8
:100A7000911CA11CB11C2F9881E35DDB7ECF8234D9
:100A8000E1F492DB81DB40E150E060E070E082E184
:100A900092E0AED66B017C0146DB80931203823478
:100AA00009F06BCF71DB82E192E0CDD78093020237
:100AB00040E0682FC6018FDB60CF823709F47DC626
:100AC0008A36B9F59EDB809112038A3609F07DC61D
:100AD00010E881E38093120344244A94410E512C80
:100AE000612C712C8FEF481A580A680A780A2F9ADD
:100AF0001123C1F0750164011D82C701B601A4DB99
:100B00009F8319DB8F8117DBEFEFCE1ADE0AEE0A27
:100B1000FE0AFD81FF5FFD831F13EFCF840C951C40
:100B2000A61CB71C2F98FFDA809312038133F9F2C9
:100B300024CF8D3631F538DB81E3809312038401B5
:100B4000005C1F4F2F9A9E828D828D819E818EDB4D
:100B5000F2DA2D813E812F5F3F4F3E832D83201798
:100B6000310799F730E4830E911CA11CB11C2F981A
:100B7000DADA80931203005C1F4F813319F341DBF3
:100B8000FCCE873759F510DB80E490E0DCDA2F9A51
:100B90000F2EF2E5EF2EF2E0FF2EF02D82E192E033
:100BA0000A811B81080D191D9E838D83ED81FE81B5
:100BB0006191FE83ED83CF01800F911F60DB2D815A
:100BC0003E812E153F0591F730E4830E911CA11C48
:100BD000B11C81E3B0DA2F9814DBCFCE8F3649F405
:100BE000E3DAA1DA682FC4014ADB81E3A4DA09DB86
:100BF000C4CE893659F4D8DA03DCE0E1F2E0808132
:100C00009ADA8091110297DAFCDAB7CE8B3651F47A
:100C1000BBDA82E192E017D78D83C6DA8D812BDCB7
:100C2000F0DAABCE833779F4BFDAAEDA40E150E0E8
:100C300060E070E082E192E0DBD5862F30DC81E37A
:100C40007ADADFDA9ACE823659F5AEDA80E490E0CD
:100C50007ADA2F9A0F2EF2E5EF2EF2E0FF2EF02D2A
:100C600022E132E00A811B81080D191D3E832D838C
:100C7000ED81FE816191FE83ED83CF01800F911F95
:100C800035DC2D813E81E216F30691F730E4830EC8
:100C9000911CA11CB11C81E34EDA2F98B2DA6DCE03
:100CA000813689F481DA80E890E04DDA2F9AC40128
:100CB00039DC8FEF881A980AA80AB80A81E33BDA70
:100CC0002F989FDA5ACE833551F45EDA40E150E036
:100CD00060E070E082E192E08BD56C834ECE853689
:100CE00021F5DDDA81E3809312032F9A6C81C40130
:100CF0001CDBE3E1F3E0FE83ED83ED81FE81819176
:100D0000FE83ED8318DA2D813E8122163306A9F782
:100D10003FEF831A930AA30AB30A2F9804DA809349
:100D20001203813311F36DDA28CE803711F5B7DA6B
:100D300083E193E09E838D83F6D9ED81FE818193DB
:100D4000FE83ED832E163F06B9F72F9A6C81C401FE
:100D50001DDBFFEF8F1A9F0AAF0ABF0A8FEF9CE7D8
:100D60000197F1F700C0000081E3E5D92F9849DA37
:100D700004CE803549F4D7D980931B03813409F020
:100D8000FCCD9A9AA29AF9CD8E3421F481E0809319
:100D90000302F3CD853461F5E4E0F2E000E112E016
:100DA000FE83ED83F1D940E150E060E070E082E144
:100DB00092E01ED5ED81FE817183608381E3BBD912
:100DC000E3D940E150E060E070E082E192E010D5CC
:100DD000ED81FE817383628381E3ADD92D813E81F4
:100DE0002C5F3F4F3E832D8302171307D9F6C5CDE5
:100DF0008634C9F4C9D940E150E060E070E082E196
:100E000092E0F6D46B017C01BFD940E150E060E094
:100E100070E082E192E0ECD42F9AC601D3DB2F98E8
:100E200081E389D9AACD843509F053C080E490E0EC
:100E30008AD92F9A80910302811124C00F2EF2E5E6
:100E4000EF2EF2E0FF2EF02D82E192E00A811B816D
:100E5000080D191D9E838D83ED81FE816191FE83B6
:100E6000ED836F3F21F0CF01800F911FD8DB2D81E3
:100E70003E81E216F30681F730E4830E911CA11C3B
:100E8000B11C23C00F2EF2E5EF2EF2E0FF2EF02D65
:100E900082E192E00A811B81080D191D9E838D83DA
:100EA000ED81FE816191FE83ED836F3F21F0CF01E3
:100EB000800F911F2BDC2D813E81E216F30681F716
:100EC00030E4830E911CA11CB11C81E334D92F980E
:100ED00054CD893509F067C080E290E034D92F9A6B
:100EE0006AEA8AEA9AE06EDB65E585E595E06ADB09
:100EF0009E828D8265E2C40165DB6FE1C40162DB25
:100F000085E08A95F1F700000F2EF2E3EF2EF2E074
:100F1000FF2EF02D02E112E0ED81FE812A813B815E
:100F2000E20FF31FFE83ED83F80161918F018D8144
:100F30009E818E0F9F1F46DBE016F106A9F7F0E2B7
:100F40008F0E911CA11CB11CC401809769E23ADB91
:100F50008FE193E00197F1F700C000008401015098
:100F60001109C80120DB98EC9D8315C0C8011BDB6B
:100F7000EAE1EA95F1F700C0FD81F150FD83F1113E
:100F80000AC02FEF39E688E1215030408040E1F778
:100F900000C0000004C0909131028913E7CF81E3C3
:100FA000CAD82F98EACC8A3459F580E490E0CBD89F
:100FB0002F9A0F2EF2E5EF2EF2E0FF2EF02DE2E158
:100FC000F2E00A811B81080D191DFE83ED83ED817E
:100FD000FE816191FE83ED836F3F21F0CF01800F91
:100FE000911F50DB2D813E81E216F30681F730E43C
:100FF000830E911CA11CB11C81E39DD82F98BDCC00
:10100000883509F057C080E091E09DD82F9A69EAB1
:101010008AEA9AE0D7DA66E585E595E0D3DA8401D5
:1010200066E2C401CFDA6FEFC401CCDA87EC90E05E
:101030000197F1F700C000000F2EF2E1EF2EF3E070
:10104000FF2EF02DE2E1F2E02A813B81020F131F17
:10105000FE83ED83ED81FE816191FE83ED83CF01FF
:10106000800F911FAFDA2D813E81E216F30691F7D2
:101070003FEF931AA30AB30AC4019A956AE2A2DA6F
:10108000C40101979E838D838EDAE1E1F3E09081C4
:10109000891761F08D819E8186DA3AE13A95F1F700
:1010A00000C0E1E1F3E090819813F4CF81E343D8ED
:1010B0002F9863CC8A3509F0C4C080E890E043D80B
:1010C0002F9A69E080E291E07DDA6AEA81E291E0BC
:1010D00079DA65E582E291E075DA65EA8FE391E01D
:1010E00071DAFAE1FA95F1F700C061E180E291E08E
:1010F00069DA65EA8FE391E065DA2AE12A95F1F78A
:1011000000C061E080E091E25DDA3AE13A95F1F702
:1011100000C06FE080E291E055DA65E585E291E09C
:1011200051DA65E586E291E04DDA6AEA87E291E01C
:1011300049DA65EA8FE391E045DA8AE18A95F1F7C9
:1011400000C06FE080E291E03DDA6AE285E291E082
:1011500039DA6AEA86E291E035DA65E587E291E01C
:1011600031DA65EA8FE391E02DDA9AE19A95F1F7A9
:1011700000C06FE080E291E025DA65E585E291E06C
:1011800021DA65E586E291E01DDA60EA87E291E026
:1011900019DA65EA8FE391E015DAEAE1EA95F1F709
:1011A00000C040E06091020280E091E214D8FAE1D0
:1011B000FA95F1F700C060E180E291E003DA65EAB8
:1011C0008FE391E0FFD92AE12A95F1F700C068E0AA
:1011D00080E291E0F7D965EA8FE391E0F3D93AE153
:1011E0003A95F1F700C082E192E00F2EF2E9EF2E7E
:1011F000F2E0FF2EF02D9E838D83ED81FE816191C3
:10120000FE83ED838401C401DDD9FAE1FA95F1F79B
:1012100000C02FEF821A920AA20AB20A8D819E8123
:10122000E816F90651F76FEFC801CCD9EFE3FCE9F6
:101230003197F1F700C0000081E30E949B002F98D6
:101240009CCB8E3659F50E94C40040E150E060E02E
:1012500070E082E192E0CCD26B017C010E949300AD
:10126000809312038E3609F088CB0E94C40040E1BF
:1012700050E060E070E082E192E0BAD22F9A2FEF66
:1012800021B9E7E0F1E0208320BBAB01C701B60143
:101290008ADA2F9881E30E949B006FCB813711F08F
:1012A000843771F52F9A80911203843709F092C226
:1012B000E12CFF24F39492C2ED81FE81418150E044
:1012C000542F44278081482B4F3FFFEF5F0721F0C9
:1012D00021E0C501B401E5DA2FEF821A920AA20AD1
:1012E000B20A0E5F1F4F8D819E8102969E838D8371
:1012F0000E151F050CF381E30E949B002F983DCB38
:101300008636A1F52F9A80E091E00E94A300E2E1E9
:10131000F2E002E113E075016401FE83ED83ED81EB
:10132000FE81418150E0542F44278081482B4F3F5C
:10133000FFEF5F0721F020E0C701B601B2DA2FEF1F
:10134000C21AD20AE20AF20A8D819E8102969E8317
:101350008D838017910719F790E8890E911CA11CC5
:10136000B11C81E30E949B002F9807CB8C3609F0BB
:1013700094C02F9A80E490E00E94A3008FEF81B97F
:10138000E7E0F1E0808380BB40E650E0C501B401B6
:101390000ADA40ED50E0C501B40105DA48EE50E04C
:1013A000C501B40100DA87EC90E00197F1F700C0C5
:1013B0000000C501B4010E9424018038910569F044
:1013C000C501B4010E942401E7ECF0E03197F1F788
:1013D00000C000008038910599F78FEF81B9E7E0F0
:1013E000F1E0808380BB4FE150E0C501B401DBD95F
:1013F00022E132E002E512E0750164013E832D83B3
:10140000ED81FE81418150E0542F44278081482B9B
:10141000C701B601C8D9FFEFCF1ADF0AEF0AFF0AEA
:101420002D813E812E5F3F4F3E832D830217130790
:1014300039F730E2830E911CA11CB11C40ED50E045
:10144000C501B401B0D98FED96E00197F1F700C066
:101450000000C501B4010E9424018038910569F0A3
:10146000C501B4010E942401E7ECF0E03197F1F7E7
:1014700000C000008038910599F78FEF81B9E7E04F
:10148000F1E0808380BB4FEF50E0C501B4018BD900
:1014900081E30E949B002F9870CA853709F053C0E2
:1014A0002F9A80E490E00E94A30002E112E00F2E48
:1014B000F2E56F2EF2E07F2EF02D750164015524C8
:1014C0005A9451B8E7E0F1E0508250BAF801F18146
:1014D0002F2F30E0922F88279E838D83F801808103
:1014E0002D813E81282B3E832D8340E450E0C701AF
:1014F000B60159D94D815E81C701B60154D9C701E2
:10150000B6010E94240187FD0AC0C701B6010E94EE
:1015100024013AE03A95F1F700C087FFF6CF8FEF4C
:10152000C81AD80AE80AF80A0E5F1F4F601671063B
:1015300041F690E2890E911CA11CB11C81E30E942E
:101540009B002F981ACA893419F08F3409F063C0B0
:101550000E9493008D830E94C40040E150E060E04F
:1015600070E082E192E044D12F9A80911203893495
:1015700051F5ED81E13439F4E7E0F1E080816095E7
:101580006823608346C0FD81F23429F480B36095FE
:10159000682360BB3EC02D81233429F481B160955E
:1015A000682361B936C03D81343429F483B3609532
:1015B000682363BB2EC08D81853459F584B1609555
:1015C000682364B926C08F3421F59D81913431F4AC
:1015D000E7E0F1E08081682B60831BC0FD81F2347D
:1015E00021F480B3682B60BB14C02D81233421F417
:1015F00081B1682B61B90DC03D81343421F48AB1C9
:10160000682B6AB906C08D81853419F484B1682BC2
:1016100064B92F98B2C98C34C1F50E9493008D83B0
:101620000E94C40040E150E060E070E082E192E09E
:10163000DFD02F9A9D81913439F4E8E0F1E0808188
:101640006095682360831FC0ED81E23429F481B383
:101650006095682361BB17C0FD81F33429F488B11C
:101660006095682368B90FC02D81243429F48BB1AB
:10167000609568236BB907C03D81353421F485B18D
:101680006095682365B92F9878C9883499F50E94C8
:1016900093008D830E94C40040E150E060E070E060
:1016A00082E192E0A5D02F9A8D81813431F4E8E077
:1016B000F1E08081682B60831BC09D81923421F40E
:1016C00081B3682B61BB14C0ED81E33421F488B190
:1016D000682B68B90DC0FD81F43421F48BB1682BFF
:1016E0006BB906C02D81253419F485B1682B65B915
:1016F0002F9843C9843421F50E9493002F9A813496
:1017000031F4E6E0F1E080810E949B0017C0823452
:1017100021F48FB10E949B0011C0833421F480B169
:101720000E949B000BC0843421F482B30E949B0072
:1017300005C0853419F483B10E949B002F981DC900
:101740008D3451F40E949300813309F414C980331D
:1017500009F013C9198211C9883621F484E00E9466
:101760009B000BC9863521F481E10E949B0005C9CD
:101770008A3209F002C90E94C40040E150E060E0F2
:1017800070E082E192E034D0613E754E8740910571
:1017900009F0F3C885B7877F85BF88E1E0E6F0E010
:1017A00080838CE080838FEF9FEF0197F1F7E5C88E
:1017B00081E38093120310E88FC90E940101809198
:1017C00012038A36A9F310E284C981E380931203DD
:1017D00010E282C96894EE24E6F8F12CC7010E9459
:1017E000A30022E132E000E010E03E832D8364CDCF
:1017F0003F924F925F926F927F928F929F92AF92A1
:10180000BF92CF92DF92EF92FF920F931F93CF93ED
:10181000DF935C016B017A016115710519F0FB0121
:1018200091838083E114F10429F0C7010297839723
:1018300008F0E2C0E5012196F5011081812F90E0CA
:101840001FD1892B11F05E01F5CF1D3229F42196AD
:10185000F501118101E007C01B3221F4E501229658
:10186000F501118100E0E114F10409F1F0E1EF1656
:10187000F10429F43EC010E3E114F10421F128E061
:10188000E216F10401F154F4E2E0EE16F10421F560
:10189000812C912CA12CB0E4BB2E3DC0FAE0EF16B8
:1018A000F10439F020E1E216F104B1F42FC0103355
:1018B00011F1FAE0EF2EF12CACEC8A2E982CA82C2A
:1018C000ACE0BA2E28C078E0E72EF12C812C912CC8
:1018D000A12CE0E1BE2E1FC060E070E080E090E847
:1018E00097010F2C000C440B550BECD049015A0109
:1018F00012C0103359F488818F7D883509F0BBCF31
:1019000019812296026080E1E82EF12C812C912C25
:10191000A12C68E0B62E40E060E070E0CB0127012A
:101920000F2C000C66087708FE0150ED352E310EA5
:1019300029E0231570F42FEB210F2A3118F439EC2C
:10194000332E06C02FE9210F2A3110F529EA322E55
:10195000310E232D30E02E153F05D4F447FD15C080
:1019600086169706A806B90668F0A30192019BD0D7
:10197000630D711D811D911D61307105810520E888
:10198000920710F04FEF01C041E021961081CCCFBB
:10199000202F2170C114D10471F0442329F0219724
:1019A000F601D183C08307C001FF19C02297F60159
:1019B000D183C08314C047FF12C0222329F060E006
:1019C00070E080E090E804C06FEF7FEF8FEF9FE75B
:1019D00022E230E030931D0320931C0309C0222330
:1019E00081F090958095709561957F4F8F4F9F4FB7
:1019F000462F372F282F12C040E030E020E090E043
:101A00000DC097FFF5CF82E290E090931D03809385
:101A10001C036FEF7FEF8FEF9FE7EACF642F732FE9
:101A2000822FDF91CF911F910F91FF90EF90DF9068
:101A3000CF90BF90AF909F908F907F906F905F906E
:101A40004F903F900895FC0188279927E8942191B1
:101A50002032E9F3293010F02E30C8F32B3239F060
:101A60002D3231F4689403C013D0820F911D21915F
:101A700020532A30C8F31EF4909581959F4F089506
:101A800091110EC0803219F089508550D0F7089519
:101A90007AE0979F902D879F802D910D11240895B6
:101AA000992788270895DB018F939F932DD0BF91AD
:101AB000AF91A29F800D911DA39F900DB29F900D9D
:101AC00011240895A1E21A2EAA1BBB1BFD010DC013
:101AD000AA1FBB1FEE1FFF1FA217B307E407F507DE
:101AE00020F0A21BB30BE40BF50B661F771F881FBA
:101AF000991F1A9469F760957095809590959B0150
:101B0000AC01BD01CF01089509D0A59F900DB49FF0
:101B1000900DA49F800D911D11240895A29FB001E6
:101B2000B39FC001A39F700D811D1124911DB29F11
:0E1B3000700D811D1124911D0895F894FFCFB2
:021B3E000200A3
:00000001FF
